:1000F6000009121B242D353C434A4F54585B5E5F62
:10010600605F5E5B58544F4A433C352D241B1209F1
:1001160000F7EEE5DCD3CBC4BDB6B1ACA8A5A2A171
:10012600A0A1A2A5A8ACB1B6BDC4CBD3DCE5EEF7C1
:0301C7000109002B
:10013600E4F54DAF4DEF3395E0FE74F62FF582747E
:10014600003EF583E493FF75F0073170F50A31BC84
:10015600740C254DF8A60BE5096003FF31AB054D80
:09016600C3E54D648094C040CA59
:01016F00226D
:0B01BC00E50A8508F0A4F50BF5902281
:1001AB00E4FEFDEDC39F5006EF2EFE0D80F5AF066E
:0101BB002221
:10008F00EE7063EF14601E14603214604624037028
:10009F0055754C0A854C083136154CC3E54C6480B8
:1000AF00948050F022E4F54CE54CF404F508313619
:1000BF00054CC3E54C6480948B40ED22754C0AE5EA
:1000CF004CF404F5083136154CC3E54C648094802C
:1000DF0050ED22E4F54C854C083136054CC3E54C08
:0600EF006480948B40F0D8
:0100F50022E8
:10019200E4FFFE118F7F017E00118F7F027E00112E
:0901A2008F7F037E00118F80E7BE
:03000000020003F8
:0C0003007803E4F6D8FD75814D02004A38
:10017000C2D530F707B2D563F0FF05F030E70CB217
:10018000D5F4048463F0FF05F080018430D502F4D7
:02019000042247
:10000F00020192E493A3F8E493A34003F68001F274
:10001F0008DFF48029E493A3F85407240CC8C333F2
:10002F00C4540F4420C8834004F456800146F6DFC1
:10003F00E4800B01020408102040809001C7E47E89
:10004F00019360BCA3FF543F30E509541FFEE493B6
:10005F00A360010ECF54C025E060A840B8E493A37D
:10006F00FAE493A3F8E493A3C8C582C8CAC583CAA8
:10007F00F0A3C8C582C8CAC583CADFE9DEE780BE60
:0101CA000034
:00000001FF
